{
  "contractName": "DonationPlatform",
  "abi": [
    {
      "inputs": [],
      "stateMutability": "nonpayable",
      "type": "constructor"
    },
    {
      "anonymous": false,
      "inputs": [
        {
          "indexed": false,
          "internalType": "uint256",
          "name": "id",
          "type": "uint256"
        },
        {
          "indexed": false,
          "internalType": "string",
          "name": "title",
          "type": "string"
        },
        {
          "indexed": false,
          "internalType": "address",
          "name": "creator",
          "type": "address"
        },
        {
          "indexed": false,
          "internalType": "uint256",
          "name": "timestamp",
          "type": "uint256"
        }
      ],
      "name": "CampaignCreated",
      "type": "event"
    },
    {
      "anonymous": false,
      "inputs": [
        {
          "indexed": false,
          "internalType": "uint256",
          "name": "id",
          "type": "uint256"
        },
        {
          "indexed": false,
          "internalType": "string",
          "name": "newTitle",
          "type": "string"
        },
        {
          "indexed": false,
          "internalType": "uint256",
          "name": "timestamp",
          "type": "uint256"
        }
      ],
      "name": "CampaignEdited",
      "type": "event"
    },
    {
      "anonymous": false,
      "inputs": [
        {
          "indexed": false,
          "internalType": "uint256",
          "name": "id",
          "type": "uint256"
        },
        {
          "indexed": false,
          "internalType": "enum DonationPlatform.CampaignStatus",
          "name": "status",
          "type": "uint8"
        },
        {
          "indexed": false,
          "internalType": "uint256",
          "name": "timestamp",
          "type": "uint256"
        }
      ],
      "name": "CampaignStatusChanged",
      "type": "event"
    },
    {
      "anonymous": false,
      "inputs": [
        {
          "indexed": false,
          "internalType": "uint256",
          "name": "campaignId",
          "type": "uint256"
        },
        {
          "indexed": false,
          "internalType": "address",
          "name": "donor",
          "type": "address"
        },
        {
          "indexed": false,
          "internalType": "uint256",
          "name": "amount",
          "type": "uint256"
        },
        {
          "indexed": false,
          "internalType": "uint256",
          "name": "timestamp",
          "type": "uint256"
        }
      ],
      "name": "DonationReceived",
      "type": "event"
    },
    {
      "inputs": [],
      "name": "admin",
      "outputs": [
        {
          "internalType": "address",
          "name": "",
          "type": "address"
        }
      ],
      "stateMutability": "view",
      "type": "function",
      "constant": true
    },
    {
      "inputs": [],
      "name": "campaignCount",
      "outputs": [
        {
          "internalType": "uint256",
          "name": "",
          "type": "uint256"
        }
      ],
      "stateMutability": "view",
      "type": "function",
      "constant": true
    },
    {
      "inputs": [
        {
          "internalType": "uint256",
          "name": "",
          "type": "uint256"
        }
      ],
      "name": "campaigns",
      "outputs": [
        {
          "internalType": "uint256",
          "name": "id",
          "type": "uint256"
        },
        {
          "internalType": "address",
          "name": "creator",
          "type": "address"
        },
        {
          "internalType": "string",
          "name": "title",
          "type": "string"
        },
        {
          "internalType": "string",
          "name": "description",
          "type": "string"
        },
        {
          "internalType": "uint256",
          "name": "targetAmount",
          "type": "uint256"
        },
        {
          "internalType": "uint256",
          "name": "collectedAmount",
          "type": "uint256"
        },
        {
          "internalType": "string",
          "name": "imageHash",
          "type": "string"
        },
        {
          "internalType": "uint256",
          "name": "deadline",
          "type": "uint256"
        },
        {
          "internalType": "enum DonationPlatform.CampaignStatus",
          "name": "status",
          "type": "uint8"
        },
        {
          "internalType": "bool",
          "name": "fundsWithdrawn",
          "type": "bool"
        }
      ],
      "stateMutability": "view",
      "type": "function",
      "constant": true
    },
    {
      "inputs": [
        {
          "internalType": "string",
          "name": "_title",
          "type": "string"
        },
        {
          "internalType": "string",
          "name": "_description",
          "type": "string"
        },
        {
          "internalType": "uint256",
          "name": "_targetAmount",
          "type": "uint256"
        },
        {
          "internalType": "string",
          "name": "_imageHash",
          "type": "string"
        },
        {
          "internalType": "uint256",
          "name": "_durationMinutes",
          "type": "uint256"
        }
      ],
      "name": "createCampaign",
      "outputs": [],
      "stateMutability": "nonpayable",
      "type": "function"
    },
    {
      "inputs": [
        {
          "internalType": "uint256",
          "name": "_id",
          "type": "uint256"
        }
      ],
      "name": "donateToCampaign",
      "outputs": [],
      "stateMutability": "payable",
      "type": "function",
      "payable": true
    },
    {
      "inputs": [
        {
          "internalType": "uint256",
          "name": "_id",
          "type": "uint256"
        }
      ],
      "name": "approveCampaign",
      "outputs": [],
      "stateMutability": "nonpayable",
      "type": "function"
    },
    {
      "inputs": [
        {
          "internalType": "uint256",
          "name": "_id",
          "type": "uint256"
        }
      ],
      "name": "rejectCampaign",
      "outputs": [],
      "stateMutability": "nonpayable",
      "type": "function"
    },
    {
      "inputs": [
        {
          "internalType": "uint256",
          "name": "_id",
          "type": "uint256"
        }
      ],
      "name": "deleteCampaign",
      "outputs": [],
      "stateMutability": "nonpayable",
      "type": "function"
    },
    {
      "inputs": [
        {
          "internalType": "uint256",
          "name": "_id",
          "type": "uint256"
        },
        {
          "internalType": "string",
          "name": "_newTitle",
          "type": "string"
        },
        {
          "internalType": "string",
          "name": "_newDesc",
          "type": "string"
        },
        {
          "internalType": "uint256",
          "name": "_newTarget",
          "type": "uint256"
        }
      ],
      "name": "editCampaign",
      "outputs": [],
      "stateMutability": "nonpayable",
      "type": "function"
    },
    {
      "inputs": [
        {
          "internalType": "uint256",
          "name": "_id",
          "type": "uint256"
        }
      ],
      "name": "withdrawFunds",
      "outputs": [],
      "stateMutability": "nonpayable",
      "type": "function"
    },
    {
      "inputs": [
        {
          "internalType": "uint256",
          "name": "_id",
          "type": "uint256"
        }
      ],
      "name": "getCampaign",
      "outputs": [
        {
          "components": [
            {
              "internalType": "uint256",
              "name": "id",
              "type": "uint256"
            },
            {
              "internalType": "address",
              "name": "creator",
              "type": "address"
            },
            {
              "internalType": "string",
              "name": "title",
              "type": "string"
            },
            {
              "internalType": "string",
              "name": "description",
              "type": "string"
            },
            {
              "internalType": "uint256",
              "name": "targetAmount",
              "type": "uint256"
            },
            {
              "internalType": "uint256",
              "name": "collectedAmount",
              "type": "uint256"
            },
            {
              "internalType": "string",
              "name": "imageHash",
              "type": "string"
            },
            {
              "internalType": "uint256",
              "name": "deadline",
              "type": "uint256"
            },
            {
              "internalType": "enum DonationPlatform.CampaignStatus",
              "name": "status",
              "type": "uint8"
            },
            {
              "internalType": "bool",
              "name": "fundsWithdrawn",
              "type": "bool"
            }
          ],
          "internalType": "struct DonationPlatform.Campaign",
          "name": "",
          "type": "tuple"
        }
      ],
      "stateMutability": "view",
      "type": "function",
      "constant": true
    },
    {
      "inputs": [],
      "name": "getCampaignCount",
      "outputs": [
        {
          "internalType": "uint256",
          "name": "",
          "type": "uint256"
        }
      ],
      "stateMutability": "view",
      "type": "function",
      "constant": true
    }
  ],
  "bytecode": "0x6080604052600060015534801561001557600080fd5b5033600260006101000a81548173ffffffffffffffffffffffffffffffffffffffff021916908373ffffffffffffffffffffffffffffffffffffffff160217905550612227806100666000396000f3fe6080604052600436106100a75760003560e01c80636caa9218116100645780636caa9218146101c65780637274e30d146101f1578063759701931461021c578063dbda96d814610245578063ee4e1b531461026e578063f851a44014610297576100a7565b8063034d09da146100ac57806313c2a281146100d5578063141961bc146100fe578063155dd5ee1461014457806342a4fda81461016d5780635598f8cc14610189575b600080fd5b3480156100b857600080fd5b506100d360048036038101906100ce91906112bb565b6102c2565b005b3480156100e157600080fd5b506100fc60048036038101906100f7919061142e565b6103cf565b005b34801561010a57600080fd5b50610125600480360381019061012091906112bb565b610616565b60405161013b9a9998979695949392919061165e565b60405180910390f35b34801561015057600080fd5b5061016b600480360381019061016691906112bb565b61083c565b005b610187600480360381019061018291906112bb565b610a65565b005b34801561019557600080fd5b506101b060048036038101906101ab91906112bb565b610bd8565b6040516101bd919061187d565b60405180910390f35b3480156101d257600080fd5b506101db610e8f565b6040516101e8919061189f565b60405180910390f35b3480156101fd57600080fd5b50610206610e99565b604051610213919061189f565b60405180910390f35b34801561022857600080fd5b50610243600480360381019061023e91906112bb565b610e9f565b005b34801561025157600080fd5b5061026c600480360381019061026791906118ba565b610fac565b005b34801561027a57600080fd5b50610295600480360381019061029091906112bb565b6110c1565b005b3480156102a357600080fd5b506102ac6111ce565b6040516102b99190611959565b60405180910390f35b600260009054906101000a900473ffffffffffffffffffffffffffffffffffffffff1673ffffffffffffffffffffffffffffffffffffffff163373ffffffffffffffffffffffffffffffffffffffff1614610352576040517f08c379a0000000000000000000000000000000000000000000000000000000008152600401610349906119e6565b60405180910390fd5b600260008083815260200190815260200160002060080160006101000a81548160ff0219169083600381111561038b5761038a6115cc565b5b02179055507fb4b6dae976f043b42fd2a99dd25502fe79adf304eb099e449e996c4aeb683940816002426040516103c493929190611a06565b60405180910390a150565b60008311610412576040517f08c379a000000000000000000000000000000000000000000000000000000000815260040161040990611aaf565b60405180910390fd5b60405180610140016040528060015481526020013373ffffffffffffffffffffffffffffffffffffffff16815260200186815260200185815260200184815260200160008152602001838152602001603c8361046e9190611afe565b426104799190611b40565b815260200160006003811115610492576104916115cc565b5b81526020016000151581525060008060015481526020019081526020016000206000820151816000015560208201518160010160006101000a81548173ffffffffffffffffffffffffffffffffffffffff021916908373ffffffffffffffffffffffffffffffffffffffff16021790555060408201518160020190816105189190611d80565b50606082015181600301908161052e9190611d80565b506080820151816004015560a0820151816005015560c08201518160060190816105589190611d80565b5060e082015181600701556101008201518160080160006101000a81548160ff0219169083600381111561058f5761058e6115cc565b5b02179055506101208201518160080160016101000a81548160ff0219169083151502179055509050507f85d038f2d0b3728e5fede2ce367934666edeabb735999e2be302dc035466b98b6001548633426040516105ef9493929190611e52565b60405180910390a16001600081548092919061060a90611e9e565b91905055505050505050565b60006020528060005260406000206000915090508060000154908060010160009054906101000a900473ffffffffffffffffffffffffffffffffffffffff169080600201805461066590611ba3565b80601f016020809104026020016040519081016040528092919081815260200182805461069190611ba3565b80156106de5780601f106106b3576101008083540402835291602001916106de565b820191906000526020600020905b8154815290600101906020018083116106c157829003601f168201915b5050505050908060030180546106f390611ba3565b80601f016020809104026020016040519081016040528092919081815260200182805461071f90611ba3565b801561076c5780601f106107415761010080835404028352916020019161076c565b820191906000526020600020905b81548152906001019060200180831161074f57829003601f168201915b50505050509080600401549080600501549080600601805461078d90611ba3565b80601f01602080910402602001604051908101604052809291908181526020018280546107b990611ba3565b80156108065780601f106107db57610100808354040283529160200191610806565b820191906000526020600020905b8154815290600101906020018083116107e957829003601f168201915b5050505050908060070154908060080160009054906101000a900460ff16908060080160019054906101000a900460ff1690508a565b600080600083815260200190815260200160002090508060010160009054906101000a900473ffffffffffffffffffffffffffffffffffffffff1673ffffffffffffffffffffffffffffffffffffffff163373ffffffffffffffffffffffffffffffffffffffff1614806108fd5750600260009054906101000a900473ffffffffffffffffffffffffffffffffffffffff1673ffffffffffffffffffffffffffffffffffffffff163373ffffffffffffffffffffffffffffffffffffffff16145b61093c576040517f08c379a000000000000000000000000000000000000000000000000000000000815260040161093390611f32565b60405180910390fd5b6000816005015411610983576040517f08c379a000000000000000000000000000000000000000000000000000000000815260040161097a90611f9e565b60405180910390fd5b8060080160019054906101000a900460ff16156109d5576040517f08c379a00000000000000000000000000000000000000000000000000000000081526004016109cc9061200a565b60405180910390fd5b60018160080160016101000a81548160ff0219169083151502179055508060010160009054906101000a900473ffffffffffffffffffffffffffffffffffffffff1673ffffffffffffffffffffffffffffffffffffffff166108fc82600501549081150290604051600060405180830381858888f19350505050158015610a60573d6000803e3d6000fd5b505050565b6000806000838152602001908152602001600020905060016003811115610a8f57610a8e6115cc565b5b8160080160009054906101000a900460ff166003811115610ab357610ab26115cc565b5b14610af3576040517f08c379a0000000000000000000000000000000000000000000000000000000008152600401610aea90612076565b60405180910390fd5b80600701544210610b39576040517f08c379a0000000000000000000000000000000000000000000000000000000008152600401610b30906120e2565b60405180910390fd5b60003411610b7c576040517f08c379a0000000000000000000000000000000000000000000000000000000008152600401610b739061214e565b60405180910390fd5b34816005016000828254610b909190611b40565b925050819055507f3dbea1b4ce5f95137fdcac9b1d685825c3d70ace830df1ca5a181d3887add41082333442604051610bcc949392919061216e565b60405180910390a15050565b610be06111f4565b60008083815260200190815260200160002060405180610140016040529081600082015481526020016001820160009054906101000a900473ffffffffffffffffffffffffffffffffffffffff1673ffffffffffffffffffffffffffffffffffffffff1673ffffffffffffffffffffffffffffffffffffffff168152602001600282018054610c6e90611ba3565b80601f0160208091040260200160405190810160405280929190818152602001828054610c9a90611ba3565b8015610ce75780601f10610cbc57610100808354040283529160200191610ce7565b820191906000526020600020905b815481529060010190602001808311610cca57829003601f168201915b50505050508152602001600382018054610d0090611ba3565b80601f0160208091040260200160405190810160405280929190818152602001828054610d2c90611ba3565b8015610d795780601f10610d4e57610100808354040283529160200191610d79565b820191906000526020600020905b815481529060010190602001808311610d5c57829003601f168201915b505050505081526020016004820154815260200160058201548152602001600682018054610da690611ba3565b80601f0160208091040260200160405190810160405280929190818152602001828054610dd290611ba3565b8015610e1f5780601f10610df457610100808354040283529160200191610e1f565b820191906000526020600020905b815481529060010190602001808311610e0257829003601f168201915b50505050508152602001600782015481526020016008820160009054906101000a900460ff166003811115610e5757610e566115cc565b5b6003811115610e6957610e686115cc565b5b81526020016008820160019054906101000a900460ff1615151515815250509050919050565b6000600154905090565b60015481565b600260009054906101000a900473ffffffffffffffffffffffffffffffffffffffff1673ffffffffffffffffffffffffffffffffffffffff163373ffffffffffffffffffffffffffffffffffffffff1614610f2f576040517f08c379a0000000000000000000000000000000000000000000000000000000008152600401610f26906119e6565b60405180910390fd5b600360008083815260200190815260200160002060080160006101000a81548160ff02191690836003811115610f6857610f676115cc565b5b02179055507fb4b6dae976f043b42fd2a99dd25502fe79adf304eb099e449e996c4aeb68394081600342604051610fa193929190611a06565b60405180910390a150565b600260009054906101000a900473ffffffffffffffffffffffffffffffffffffffff1673ffffffffffffffffffffffffffffffffffffffff163373ffffffffffffffffffffffffffffffffffffffff161461103c576040517f08c379a0000000000000000000000000000000000000000000000000000000008152600401611033906119e6565b60405180910390fd5b60008060008681526020019081526020016000209050838160020190816110639190611d80565b50828160030190816110759190611d80565b508181600401819055507fe2932cf477e430fe6fc0179408abdc2fd69493412225e282be12858f7a3eada98585426040516110b2939291906121b3565b60405180910390a15050505050565b600260009054906101000a900473ffffffffffffffffffffffffffffffffffffffff1673ffffffffffffffffffffffffffffffffffffffff163373ffffffffffffffffffffffffffffffffffffffff1614611151576040517f08c379a0000000000000000000000000000000000000000000000000000000008152600401611148906119e6565b60405180910390fd5b600160008083815260200190815260200160002060080160006101000a81548160ff0219169083600381111561118a576111896115cc565b5b02179055507fb4b6dae976f043b42fd2a99dd25502fe79adf304eb099e449e996c4aeb683940816001426040516111c393929190611a06565b60405180910390a150565b600260009054906101000a900473ffffffffffffffffffffffffffffffffffffffff1681565b60405180610140016040528060008152602001600073ffffffffffffffffffffffffffffffffffffffff16815260200160608152602001606081526020016000815260200160008152602001606081526020016000815260200160006003811115611262576112616115cc565b5b81526020016000151581525090565b6000604051905090565b600080fd5b600080fd5b6000819050919050565b61129881611285565b81146112a357600080fd5b50565b6000813590506112b58161128f565b92915050565b6000602082840312156112d1576112d061127b565b5b60006112df848285016112a6565b91505092915050565b600080fd5b600080fd5b6000601f19601f8301169050919050565b7f4e487b7100000000000000000000000000000000000000000000000000000000600052604160045260246000fd5b61133b826112f2565b810181811067ffffffffffffffff8211171561135a57611359611303565b5b80604052505050565b600061136d611271565b90506113798282611332565b919050565b600067ffffffffffffffff82111561139957611398611303565b5b6113a2826112f2565b9050602081019050919050565b82818337600083830152505050565b60006113d16113cc8461137e565b611363565b9050828152602081018484840111156113ed576113ec6112ed565b5b6113f88482856113af565b509392505050565b600082601f830112611415576114146112e8565b5b81356114258482602086016113be565b91505092915050565b600080600080600060a0868803121561144a5761144961127b565b5b600086013567ffffffffffffffff81111561146857611467611280565b5b61147488828901611400565b955050602086013567ffffffffffffffff81111561149557611494611280565b5b6114a188828901611400565b94505060406114b2888289016112a6565b935050606086013567ffffffffffffffff8111156114d3576114d2611280565b5b6114df88828901611400565b92505060806114f0888289016112a6565b9150509295509295909350565b61150681611285565b82525050565b600073ffffffffffffffffffffffffffffffffffffffff82169050919050565b60006115378261150c565b9050919050565b6115478161152c565b82525050565b600081519050919050565b600082825260208201905092915050565b60005b8381101561158757808201518184015260208101905061156c565b60008484015250505050565b600061159e8261154d565b6115a88185611558565b93506115b8818560208601611569565b6115c1816112f2565b840191505092915050565b7f4e487b7100000000000000000000000000000000000000000000000000000000600052602160045260246000fd5b6004811061160c5761160b6115cc565b5b50565b600081905061161d826115fb565b919050565b600061162d8261160f565b9050919050565b61163d81611622565b82525050565b60008115159050919050565b61165881611643565b82525050565b600061014082019050611674600083018d6114fd565b611681602083018c61153e565b8181036040830152611693818b611593565b905081810360608301526116a7818a611593565b90506116b660808301896114fd565b6116c360a08301886114fd565b81810360c08301526116d58187611593565b90506116e460e08301866114fd565b6116f2610100830185611634565b61170061012083018461164f565b9b9a5050505050505050505050565b61171881611285565b82525050565b6117278161152c565b82525050565b600082825260208201905092915050565b60006117498261154d565b611753818561172d565b9350611763818560208601611569565b61176c816112f2565b840191505092915050565b61178081611622565b82525050565b61178f81611643565b82525050565b6000610140830160008301516117ae600086018261170f565b5060208301516117c1602086018261171e565b50604083015184820360408601526117d9828261173e565b915050606083015184820360608601526117f3828261173e565b9150506080830151611808608086018261170f565b5060a083015161181b60a086018261170f565b5060c083015184820360c0860152611833828261173e565b91505060e083015161184860e086018261170f565b5061010083015161185d610100860182611777565b50610120830151611872610120860182611786565b508091505092915050565b600060208201905081810360008301526118978184611795565b905092915050565b60006020820190506118b460008301846114fd565b92915050565b600080600080608085870312156118d4576118d361127b565b5b60006118e2878288016112a6565b945050602085013567ffffffffffffffff81111561190357611902611280565b5b61190f87828801611400565b935050604085013567ffffffffffffffff8111156119305761192f611280565b5b61193c87828801611400565b925050606061194d878288016112a6565b91505092959194509250565b600060208201905061196e600083018461153e565b92915050565b7f4f6e6c792061646d696e2063616e20706572666f726d2074686973206163746960008201527f6f6e000000000000000000000000000000000000000000000000000000000000602082015250565b60006119d0602283611558565b91506119db82611974565b604082019050919050565b600060208201905081810360008301526119ff816119c3565b9050919050565b6000606082019050611a1b60008301866114fd565b611a286020830185611634565b611a3560408301846114fd565b949350505050565b7f54617267657420616d6f756e74206d757374206265206772656174657220746860008201527f616e203000000000000000000000000000000000000000000000000000000000602082015250565b6000611a99602483611558565b9150611aa482611a3d565b604082019050919050565b60006020820190508181036000830152611ac881611a8c565b9050919050565b7f4e487b7100000000000000000000000000000000000000000000000000000000600052601160045260246000fd5b6000611b0982611285565b9150611b1483611285565b9250828202611b2281611285565b91508282048414831517611b3957611b38611acf565b5b5092915050565b6000611b4b82611285565b9150611b5683611285565b9250828201905080821115611b6e57611b6d611acf565b5b92915050565b7f4e487b7100000000000000000000000000000000000000000000000000000000600052602260045260246000fd5b60006002820490506001821680611bbb57607f821691505b602082108103611bce57611bcd611b74565b5b50919050565b60008190508160005260206000209050919050565b60006020601f8301049050919050565b600082821b905092915050565b600060088302611c367fffffffffffffffffffffffffffffffffffffffffffffffffffffffffffffffff82611bf9565b611c408683611bf9565b95508019841693508086168417925050509392505050565b6000819050919050565b6000611c7d611c78611c7384611285565b611c58565b611285565b9050919050565b6000819050919050565b611c9783611c62565b611cab611ca382611c84565b848454611c06565b825550505050565b600090565b611cc0611cb3565b611ccb818484611c8e565b505050565b5b81811015611cef57611ce4600082611cb8565b600181019050611cd1565b5050565b601f821115611d3457611d0581611bd4565b611d0e84611be9565b81016020851015611d1d578190505b611d31611d2985611be9565b830182611cd0565b50505b505050565b600082821c905092915050565b6000611d5760001984600802611d39565b1980831691505092915050565b6000611d708383611d46565b9150826002028217905092915050565b611d898261154d565b67ffffffffffffffff811115611da257611da1611303565b5b611dac8254611ba3565b611db7828285611cf3565b600060209050601f831160018114611dea5760008415611dd8578287015190505b611de28582611d64565b865550611e4a565b601f198416611df886611bd4565b60005b82811015611e2057848901518255600182019150602085019450602081019050611dfb565b86831015611e3d5784890151611e39601f891682611d46565b8355505b6001600288020188555050505b505050505050565b6000608082019050611e6760008301876114fd565b8181036020830152611e798186611593565b9050611e88604083018561153e565b611e9560608301846114fd565b95945050505050565b6000611ea982611285565b91507fffffffffffffffffffffffffffffffffffffffffffffffffffffffffffffffff8203611edb57611eda611acf565b5b600182019050919050565b7f556e617574686f72697a65640000000000000000000000000000000000000000600082015250565b6000611f1c600c83611558565b9150611f2782611ee6565b602082019050919050565b60006020820190508181036000830152611f4b81611f0f565b9050919050565b7f4e6f2066756e647320746f207769746864726177000000000000000000000000600082015250565b6000611f88601483611558565b9150611f9382611f52565b602082019050919050565b60006020820190508181036000830152611fb781611f7b565b9050919050565b7f46756e647320616c72656164792077697468647261776e000000000000000000600082015250565b6000611ff4601783611558565b9150611fff82611fbe565b602082019050919050565b6000602082019050818103600083015261202381611fe7565b9050919050565b7f43616d706169676e206973206e6f742061637469766500000000000000000000600082015250565b6000612060601683611558565b915061206b8261202a565b602082019050919050565b6000602082019050818103600083015261208f81612053565b9050919050565b7f43616d706169676e2068617320656e6465640000000000000000000000000000600082015250565b60006120cc601283611558565b91506120d782612096565b602082019050919050565b600060208201905081810360008301526120fb816120bf565b9050919050565b7f446f6e6174696f6e206d7573742062652067726561746572207468616e203000600082015250565b6000612138601f83611558565b915061214382612102565b602082019050919050565b600060208201905081810360008301526121678161212b565b9050919050565b600060808201905061218360008301876114fd565b612190602083018661153e565b61219d60408301856114fd565b6121aa60608301846114fd565b95945050505050565b60006060820190506121c860008301866114fd565b81810360208301526121da8185611593565b90506121e960408301846114fd565b94935050505056fea2646970667358221220b410315675d0274bca04aa81d05e886cafcea959fd2525ec703a28d57feabb9064736f6c63430008110033",
  "immutableReferences": {},
  "source": "// SPDX-License-Identifier: MIT\r\npragma solidity ^0.8.0;\r\n\r\ncontract DonationPlatform {\r\n    struct Campaign {\r\n        uint256 id;\r\n        address creator;\r\n        string title;\r\n        string description;\r\n        uint256 targetAmount;\r\n        uint256 collectedAmount;\r\n        string imageHash;\r\n        uint256 deadline;\r\n        CampaignStatus status; // 0: Pending, 1: Approved, 2: Rejected, 3: Deleted\r\n        bool fundsWithdrawn;\r\n    }\r\n\r\n    enum CampaignStatus { PENDING, APPROVED, REJECTED, DELETED }\r\n\r\n    mapping(uint256 => Campaign) public campaigns;\r\n    uint256 public campaignCount = 0;\r\n    address public admin;\r\n\r\n    // Events untuk Riwayat Transaksi (Audit Trail)\r\n    event CampaignCreated(uint256 id, string title, address creator, uint256 timestamp);\r\n    event DonationReceived(uint256 campaignId, address donor, uint256 amount, uint256 timestamp);\r\n    event CampaignStatusChanged(uint256 id, CampaignStatus status, uint256 timestamp);\r\n    event CampaignEdited(uint256 id, string newTitle, uint256 timestamp);\r\n\r\n    modifier onlyAdmin() {\r\n        require(msg.sender == admin, \"Only admin can perform this action\");\r\n        _;\r\n    }\r\n\r\n    constructor() {\r\n        admin = msg.sender;\r\n    }\r\n\r\n    function createCampaign(\r\n        string memory _title,\r\n        string memory _description,\r\n        uint256 _targetAmount,\r\n        string memory _imageHash,\r\n        uint256 _durationMinutes\r\n    ) public {\r\n        require(_targetAmount > 0, \"Target amount must be greater than 0\");\r\n        \r\n        campaigns[campaignCount] = Campaign(\r\n            campaignCount,\r\n            msg.sender,\r\n            _title,\r\n            _description,\r\n            _targetAmount,\r\n            0,\r\n            _imageHash,\r\n            block.timestamp + (_durationMinutes * 1 minutes),\r\n            CampaignStatus.PENDING,\r\n            false\r\n        );\r\n\r\n        emit CampaignCreated(campaignCount, _title, msg.sender, block.timestamp);\r\n        campaignCount++;\r\n    }\r\n\r\n    function donateToCampaign(uint256 _id) public payable {\r\n        Campaign storage campaign = campaigns[_id];\r\n        require(campaign.status == CampaignStatus.APPROVED, \"Campaign is not active\");\r\n        require(block.timestamp < campaign.deadline, \"Campaign has ended\");\r\n        require(msg.value > 0, \"Donation must be greater than 0\");\r\n\r\n        campaign.collectedAmount += msg.value;\r\n        emit DonationReceived(_id, msg.sender, msg.value, block.timestamp);\r\n    }\r\n\r\n    // --- FITUR BARU UNTUK ADMIN ---\r\n\r\n    function approveCampaign(uint256 _id) public onlyAdmin {\r\n        campaigns[_id].status = CampaignStatus.APPROVED;\r\n        emit CampaignStatusChanged(_id, CampaignStatus.APPROVED, block.timestamp);\r\n    }\r\n\r\n    function rejectCampaign(uint256 _id) public onlyAdmin {\r\n        campaigns[_id].status = CampaignStatus.REJECTED;\r\n        emit CampaignStatusChanged(_id, CampaignStatus.REJECTED, block.timestamp);\r\n    }\r\n\r\n    // Fitur \"Soft Delete\" (Hanya Admin)\r\n    function deleteCampaign(uint256 _id) public onlyAdmin {\r\n        campaigns[_id].status = CampaignStatus.DELETED;\r\n        emit CampaignStatusChanged(_id, CampaignStatus.DELETED, block.timestamp);\r\n    }\r\n\r\n    // Fitur Edit Campaign (Hanya Admin - karena di blockchain data user immutable, admin yg punya kuasa override)\r\n    function editCampaign(\r\n        uint256 _id,\r\n        string memory _newTitle,\r\n        string memory _newDesc,\r\n        uint256 _newTarget\r\n    ) public onlyAdmin {\r\n        Campaign storage c = campaigns[_id];\r\n        c.title = _newTitle;\r\n        c.description = _newDesc;\r\n        c.targetAmount = _newTarget;\r\n        emit CampaignEdited(_id, _newTitle, block.timestamp);\r\n    }\r\n\r\n    function withdrawFunds(uint256 _id) public {\r\n        Campaign storage campaign = campaigns[_id];\r\n        require(msg.sender == campaign.creator || msg.sender == admin, \"Unauthorized\");\r\n        require(campaign.collectedAmount > 0, \"No funds to withdraw\");\r\n        require(!campaign.fundsWithdrawn, \"Funds already withdrawn\");\r\n\r\n        campaign.fundsWithdrawn = true;\r\n        payable(campaign.creator).transfer(campaign.collectedAmount);\r\n    }\r\n\r\n    function getCampaign(uint256 _id) public view returns (Campaign memory) {\r\n        return campaigns[_id];\r\n    }\r\n\r\n    function getCampaignCount() public view returns (uint256) {\r\n        return campaignCount;\r\n    }\r\n}",
  "sourcePath": "D:\\Project\\Blockchain\\donation_truffle\\contracts\\DonationPlatform.sol",
  "compiler": {
    "name": "solc",
    "version": "0.8.17+commit.8df45f5f.Emscripten.clang"
  },
  "schemaVersion": "3.4.16",
  "updatedAt": "2025-11-23T13:56:16.646Z",
  "networkType": "ethereum",
  "devdoc": {
    "kind": "dev",
    "methods": {},
    "version": 1
  },
  "userdoc": {
    "kind": "user",
    "methods": {},
    "version": 1
  }
}