{
  "contractName": "DonationPlatform",
  "abi": [
    {
      "inputs": [],
      "stateMutability": "nonpayable",
      "type": "constructor"
    },
    {
      "anonymous": false,
      "inputs": [
        {
          "indexed": true,
          "internalType": "address",
          "name": "admin",
          "type": "address"
        }
      ],
      "name": "AdminAdded",
      "type": "event"
    },
    {
      "anonymous": false,
      "inputs": [
        {
          "indexed": true,
          "internalType": "address",
          "name": "admin",
          "type": "address"
        }
      ],
      "name": "AdminRemoved",
      "type": "event"
    },
    {
      "anonymous": false,
      "inputs": [
        {
          "indexed": true,
          "internalType": "uint256",
          "name": "campaignId",
          "type": "uint256"
        }
      ],
      "name": "CampaignApproved",
      "type": "event"
    },
    {
      "anonymous": false,
      "inputs": [
        {
          "indexed": true,
          "internalType": "uint256",
          "name": "campaignId",
          "type": "uint256"
        },
        {
          "indexed": true,
          "internalType": "address",
          "name": "creator",
          "type": "address"
        },
        {
          "indexed": false,
          "internalType": "string",
          "name": "title",
          "type": "string"
        },
        {
          "indexed": false,
          "internalType": "uint256",
          "name": "deadline",
          "type": "uint256"
        }
      ],
      "name": "CampaignCreated",
      "type": "event"
    },
    {
      "anonymous": false,
      "inputs": [
        {
          "indexed": true,
          "internalType": "uint256",
          "name": "campaignId",
          "type": "uint256"
        }
      ],
      "name": "CampaignDisabled",
      "type": "event"
    },
    {
      "anonymous": false,
      "inputs": [
        {
          "indexed": true,
          "internalType": "uint256",
          "name": "campaignId",
          "type": "uint256"
        }
      ],
      "name": "CampaignRejected",
      "type": "event"
    },
    {
      "anonymous": false,
      "inputs": [
        {
          "indexed": true,
          "internalType": "uint256",
          "name": "campaignId",
          "type": "uint256"
        },
        {
          "indexed": true,
          "internalType": "address",
          "name": "donor",
          "type": "address"
        },
        {
          "indexed": false,
          "internalType": "uint256",
          "name": "amount",
          "type": "uint256"
        }
      ],
      "name": "DonationReceived",
      "type": "event"
    },
    {
      "anonymous": false,
      "inputs": [
        {
          "indexed": true,
          "internalType": "uint256",
          "name": "campaignId",
          "type": "uint256"
        },
        {
          "indexed": true,
          "internalType": "address",
          "name": "creator",
          "type": "address"
        },
        {
          "indexed": false,
          "internalType": "uint256",
          "name": "amount",
          "type": "uint256"
        }
      ],
      "name": "FundsWithdrawn",
      "type": "event"
    },
    {
      "inputs": [
        {
          "internalType": "address",
          "name": "",
          "type": "address"
        }
      ],
      "name": "admins",
      "outputs": [
        {
          "internalType": "bool",
          "name": "",
          "type": "bool"
        }
      ],
      "stateMutability": "view",
      "type": "function",
      "constant": true
    },
    {
      "inputs": [
        {
          "internalType": "uint256",
          "name": "",
          "type": "uint256"
        }
      ],
      "name": "campaigns",
      "outputs": [
        {
          "internalType": "address",
          "name": "creator",
          "type": "address"
        },
        {
          "internalType": "string",
          "name": "title",
          "type": "string"
        },
        {
          "internalType": "uint256",
          "name": "deadline",
          "type": "uint256"
        },
        {
          "internalType": "uint256",
          "name": "totalDonations",
          "type": "uint256"
        },
        {
          "internalType": "enum DonationPlatform.CampaignStatus",
          "name": "status",
          "type": "uint8"
        }
      ],
      "stateMutability": "view",
      "type": "function",
      "constant": true
    },
    {
      "inputs": [
        {
          "internalType": "address",
          "name": "_newAdmin",
          "type": "address"
        }
      ],
      "name": "addAdmin",
      "outputs": [],
      "stateMutability": "nonpayable",
      "type": "function"
    },
    {
      "inputs": [
        {
          "internalType": "address",
          "name": "_admin",
          "type": "address"
        }
      ],
      "name": "removeAdmin",
      "outputs": [],
      "stateMutability": "nonpayable",
      "type": "function"
    },
    {
      "inputs": [
        {
          "internalType": "string",
          "name": "_title",
          "type": "string"
        },
        {
          "internalType": "uint256",
          "name": "_durationMinutes",
          "type": "uint256"
        }
      ],
      "name": "createCampaign",
      "outputs": [],
      "stateMutability": "nonpayable",
      "type": "function"
    },
    {
      "inputs": [
        {
          "internalType": "uint256",
          "name": "_id",
          "type": "uint256"
        }
      ],
      "name": "approveCampaign",
      "outputs": [],
      "stateMutability": "nonpayable",
      "type": "function"
    },
    {
      "inputs": [
        {
          "internalType": "uint256",
          "name": "_id",
          "type": "uint256"
        }
      ],
      "name": "rejectCampaign",
      "outputs": [],
      "stateMutability": "nonpayable",
      "type": "function"
    },
    {
      "inputs": [
        {
          "internalType": "uint256",
          "name": "_id",
          "type": "uint256"
        }
      ],
      "name": "disableCampaign",
      "outputs": [],
      "stateMutability": "nonpayable",
      "type": "function"
    },
    {
      "inputs": [
        {
          "internalType": "uint256",
          "name": "_id",
          "type": "uint256"
        }
      ],
      "name": "donateToCampaign",
      "outputs": [],
      "stateMutability": "payable",
      "type": "function",
      "payable": true
    },
    {
      "inputs": [
        {
          "internalType": "uint256",
          "name": "_id",
          "type": "uint256"
        }
      ],
      "name": "withdrawFunds",
      "outputs": [],
      "stateMutability": "nonpayable",
      "type": "function"
    },
    {
      "inputs": [],
      "name": "getCampaignCount",
      "outputs": [
        {
          "internalType": "uint256",
          "name": "",
          "type": "uint256"
        }
      ],
      "stateMutability": "view",
      "type": "function",
      "constant": true
    },
    {
      "inputs": [],
      "name": "getTotalCampaigns",
      "outputs": [
        {
          "internalType": "uint256",
          "name": "",
          "type": "uint256"
        }
      ],
      "stateMutability": "view",
      "type": "function",
      "constant": true
    },
    {
      "inputs": [
        {
          "internalType": "uint256",
          "name": "_id",
          "type": "uint256"
        }
      ],
      "name": "getCampaign",
      "outputs": [
        {
          "internalType": "address",
          "name": "creator",
          "type": "address"
        },
        {
          "internalType": "string",
          "name": "title",
          "type": "string"
        },
        {
          "internalType": "uint256",
          "name": "deadline",
          "type": "uint256"
        },
        {
          "internalType": "uint256",
          "name": "totalDonations",
          "type": "uint256"
        },
        {
          "internalType": "enum DonationPlatform.CampaignStatus",
          "name": "status",
          "type": "uint8"
        }
      ],
      "stateMutability": "view",
      "type": "function",
      "constant": true
    }
  ],
  "bytecode": "0x608060405234801561001057600080fd5b5060016000803373ffffffffffffffffffffffffffffffffffffffff1673ffffffffffffffffffffffffffffffffffffffff16815260200190815260200160002060006101000a81548160ff0219169083151502179055503373ffffffffffffffffffffffffffffffffffffffff167f44d6d25963f097ad14f29f06854a01f575648a1ef82f30e562ccd3889717e33960405160405180910390a2612419806100ba6000396000f3fe6080604052600436106100c25760003560e01c8063429b62e51161007f5780636caa9218116100595780636caa921814610271578063704802751461029c578063ee4e1b53146102c5578063f102a67c146102ee576100c2565b8063429b62e5146101d757806342a4fda8146102145780635598f8cc14610230576100c2565b8063034d09da146100c7578063141961bc146100f0578063155dd5ee1461013157806316f43dd41461015a5780631785f53c14610185578063369d5f3d146101ae575b600080fd5b3480156100d357600080fd5b506100ee60048036038101906100e99190611514565b610317565b005b3480156100fc57600080fd5b5061011760048036038101906101129190611514565b61049e565b604051610128959493929190611698565b60405180910390f35b34801561013d57600080fd5b5061015860048036038101906101539190611514565b610599565b005b34801561016657600080fd5b5061016f610805565b60405161017c91906116f2565b60405180910390f35b34801561019157600080fd5b506101ac60048036038101906101a79190611739565b610812565b005b3480156101ba57600080fd5b506101d560048036038101906101d09190611514565b610a33565b005b3480156101e357600080fd5b506101fe60048036038101906101f99190611739565b610bba565b60405161020b9190611781565b60405180910390f35b61022e60048036038101906102299190611514565b610bda565b005b34801561023c57600080fd5b5061025760048036038101906102529190611514565b610e01565b604051610268959493929190611698565b60405180910390f35b34801561027d57600080fd5b50610286610f9e565b60405161029391906116f2565b60405180910390f35b3480156102a857600080fd5b506102c360048036038101906102be9190611739565b610fab565b005b3480156102d157600080fd5b506102ec60048036038101906102e79190611514565b61115f565b005b3480156102fa57600080fd5b50610315600480360381019061031091906118d1565b6112e6565b005b6000803373ffffffffffffffffffffffffffffffffffffffff1673ffffffffffffffffffffffffffffffffffffffff16815260200190815260200160002060009054906101000a900460ff166103a2576040517f08c379a00000000000000000000000000000000000000000000000000000000081526004016103999061199f565b60405180910390fd5b6000600182815481106103b8576103b76119bf565b5b90600052602060002090600502019050600060038111156103dc576103db611621565b5b8160040160009054906101000a900460ff166003811115610400576103ff611621565b5b14610440576040517f08c379a000000000000000000000000000000000000000000000000000000000815260040161043790611a3a565b60405180910390fd5b60028160040160006101000a81548160ff0219169083600381111561046857610467611621565b5b0217905550817fc3f451c8eba813b83ed73bf2904347fff970b9ca06227a6507f7e9cd971ff11360405160405180910390a25050565b600181815481106104ae57600080fd5b90600052602060002090600502016000915090508060000160009054906101000a900473ffffffffffffffffffffffffffffffffffffffff16908060010180546104f790611a89565b80601f016020809104026020016040519081016040528092919081815260200182805461052390611a89565b80156105705780601f1061054557610100808354040283529160200191610570565b820191906000526020600020905b81548152906001019060200180831161055357829003601f168201915b5050505050908060020154908060030154908060040160009054906101000a900460ff16905085565b6000600182815481106105af576105ae6119bf565b5b906000526020600020906005020190508060000160009054906101000a900473ffffffffffffffffffffffffffffffffffffffff1673ffffffffffffffffffffffffffffffffffffffff163373ffffffffffffffffffffffffffffffffffffffff1614610651576040517f08c379a000000000000000000000000000000000000000000000000000000000815260040161064890611b06565b60405180910390fd5b8060020154421015610698576040517f08c379a000000000000000000000000000000000000000000000000000000000815260040161068f90611b72565b60405180910390fd5b600160038111156106ac576106ab611621565b5b8160040160009054906101000a900460ff1660038111156106d0576106cf611621565b5b14610710576040517f08c379a000000000000000000000000000000000000000000000000000000000815260040161070790611bde565b60405180910390fd5b6000816003015411610757576040517f08c379a000000000000000000000000000000000000000000000000000000000815260040161074e90611c4a565b60405180910390fd5b600081600301549050600082600301819055503373ffffffffffffffffffffffffffffffffffffffff166108fc829081150290604051600060405180830381858888f193505050501580156107b0573d6000803e3d6000fd5b503373ffffffffffffffffffffffffffffffffffffffff16837ff440aec6b52895984d061d622e6edeba6210f7c3e059be920663140c084560d7836040516107f891906116f2565b60405180910390a3505050565b6000600180549050905090565b6000803373ffffffffffffffffffffffffffffffffffffffff1673ffffffffffffffffffffffffffffffffffffffff16815260200190815260200160002060009054906101000a900460ff1661089d576040517f08c379a00000000000000000000000000000000000000000000000000000000081526004016108949061199f565b60405180910390fd5b6000808273ffffffffffffffffffffffffffffffffffffffff1673ffffffffffffffffffffffffffffffffffffffff16815260200190815260200160002060009054906101000a900460ff16610928576040517f08c379a000000000000000000000000000000000000000000000000000000000815260040161091f90611cb6565b60405180910390fd5b3373ffffffffffffffffffffffffffffffffffffffff168173ffffffffffffffffffffffffffffffffffffffff1603610996576040517f08c379a000000000000000000000000000000000000000000000000000000000815260040161098d90611d22565b60405180910390fd5b60008060008373ffffffffffffffffffffffffffffffffffffffff1673ffffffffffffffffffffffffffffffffffffffff16815260200190815260200160002060006101000a81548160ff0219169083151502179055508073ffffffffffffffffffffffffffffffffffffffff167fa3b62bc36326052d97ea62d63c3d60308ed4c3ea8ac079dd8499f1e9c4f80c0f60405160405180910390a250565b6000803373ffffffffffffffffffffffffffffffffffffffff1673ffffffffffffffffffffffffffffffffffffffff16815260200190815260200160002060009054906101000a900460ff16610abe576040517f08c379a0000000000000000000000000000000000000000000000000000000008152600401610ab59061199f565b60405180910390fd5b600060018281548110610ad457610ad36119bf565b5b9060005260206000209060050201905060016003811115610af857610af7611621565b5b8160040160009054906101000a900460ff166003811115610b1c57610b1b611621565b5b14610b5c576040517f08c379a0000000000000000000000000000000000000000000000000000000008152600401610b5390611d8e565b60405180910390fd5b60038160040160006101000a81548160ff02191690836003811115610b8457610b83611621565b5b0217905550817f9620e459d78787bd1a66e8aa7f06df3177404e39240c06c264f48ce40fee141560405160405180910390a25050565b60006020528060005260406000206000915054906101000a900460ff1681565b600060018281548110610bf057610bef6119bf565b5b9060005260206000209060050201905060016003811115610c1457610c13611621565b5b8160040160009054906101000a900460ff166003811115610c3857610c37611621565b5b14610c78576040517f08c379a0000000000000000000000000000000000000000000000000000000008152600401610c6f90611dfa565b60405180910390fd5b80600201544210610cbe576040517f08c379a0000000000000000000000000000000000000000000000000000000008152600401610cb590611e66565b60405180910390fd5b60003411610d01576040517f08c379a0000000000000000000000000000000000000000000000000000000008152600401610cf890611ed2565b60405180910390fd5b8060000160009054906101000a900473ffffffffffffffffffffffffffffffffffffffff1673ffffffffffffffffffffffffffffffffffffffff163373ffffffffffffffffffffffffffffffffffffffff1603610d93576040517f08c379a0000000000000000000000000000000000000000000000000000000008152600401610d8a90611f64565b60405180910390fd5b34816003016000828254610da79190611fb3565b925050819055503373ffffffffffffffffffffffffffffffffffffffff16827f0b5b4c52969ff7329ecf7ee536409fda87812b15a8622bc6e8cdeab3aee14a2634604051610df591906116f2565b60405180910390a35050565b6000606060008060008060018781548110610e1f57610e1e6119bf565b5b90600052602060002090600502016040518060a00160405290816000820160009054906101000a900473ffffffffffffffffffffffffffffffffffffffff1673ffffffffffffffffffffffffffffffffffffffff1673ffffffffffffffffffffffffffffffffffffffff168152602001600182018054610e9e90611a89565b80601f0160208091040260200160405190810160405280929190818152602001828054610eca90611a89565b8015610f175780601f10610eec57610100808354040283529160200191610f17565b820191906000526020600020905b815481529060010190602001808311610efa57829003601f168201915b5050505050815260200160028201548152602001600382015481526020016004820160009054906101000a900460ff166003811115610f5957610f58611621565b5b6003811115610f6b57610f6a611621565b5b81525050905080600001518160200151826040015183606001518460800151955095509550955095505091939590929450565b6000600180549050905090565b6000803373ffffffffffffffffffffffffffffffffffffffff1673ffffffffffffffffffffffffffffffffffffffff16815260200190815260200160002060009054906101000a900460ff16611036576040517f08c379a000000000000000000000000000000000000000000000000000000000815260040161102d9061199f565b60405180910390fd5b6000808273ffffffffffffffffffffffffffffffffffffffff1673ffffffffffffffffffffffffffffffffffffffff16815260200190815260200160002060009054906101000a900460ff16156110c2576040517f08c379a00000000000000000000000000000000000000000000000000000000081526004016110b990612033565b60405180910390fd5b60016000808373ffffffffffffffffffffffffffffffffffffffff1673ffffffffffffffffffffffffffffffffffffffff16815260200190815260200160002060006101000a81548160ff0219169083151502179055508073ffffffffffffffffffffffffffffffffffffffff167f44d6d25963f097ad14f29f06854a01f575648a1ef82f30e562ccd3889717e33960405160405180910390a250565b6000803373ffffffffffffffffffffffffffffffffffffffff1673ffffffffffffffffffffffffffffffffffffffff16815260200190815260200160002060009054906101000a900460ff166111ea576040517f08c379a00000000000000000000000000000000000000000000000000000000081526004016111e19061199f565b60405180910390fd5b600060018281548110611200576111ff6119bf565b5b906000526020600020906005020190506000600381111561122457611223611621565b5b8160040160009054906101000a900460ff16600381111561124857611247611621565b5b14611288576040517f08c379a000000000000000000000000000000000000000000000000000000000815260040161127f90611a3a565b60405180910390fd5b60018160040160006101000a81548160ff021916908360038111156112b0576112af611621565b5b0217905550817f3aa476b7499359259e68e236e4ba85f83ff093e3b6341e6a3f6f295d9cd6887760405160405180910390a25050565b60008111611329576040517f08c379a00000000000000000000000000000000000000000000000000000000081526004016113209061209f565b60405180910390fd5b6000603c8261133891906120bf565b426113439190611fb3565b905060016040518060a001604052803373ffffffffffffffffffffffffffffffffffffffff168152602001858152602001838152602001600081526020016000600381111561139557611394611621565b5b815250908060018154018082558091505060019003906000526020600020906005020160009091909190915060008201518160000160006101000a81548173ffffffffffffffffffffffffffffffffffffffff021916908373ffffffffffffffffffffffffffffffffffffffff160217905550602082015181600101908161141d91906122ad565b50604082015181600201556060820151816003015560808201518160040160006101000a81548160ff0219169083600381111561145d5761145c611621565b5b021790555050503373ffffffffffffffffffffffffffffffffffffffff166001808054905061148c919061237f565b7f825fb10f7650ed27414d6f86acdf7d5946927d9b25001f045f1a2435deec02fe85846040516114bd9291906123b3565b60405180910390a3505050565b6000604051905090565b600080fd5b600080fd5b6000819050919050565b6114f1816114de565b81146114fc57600080fd5b50565b60008135905061150e816114e8565b92915050565b60006020828403121561152a576115296114d4565b5b6000611538848285016114ff565b91505092915050565b600073ffffffffffffffffffffffffffffffffffffffff82169050919050565b600061156c82611541565b9050919050565b61157c81611561565b82525050565b600081519050919050565b600082825260208201905092915050565b60005b838110156115bc5780820151818401526020810190506115a1565b60008484015250505050565b6000601f19601f8301169050919050565b60006115e482611582565b6115ee818561158d565b93506115fe81856020860161159e565b611607816115c8565b840191505092915050565b61161b816114de565b82525050565b7f4e487b7100000000000000000000000000000000000000000000000000000000600052602160045260246000fd5b6004811061166157611660611621565b5b50565b600081905061167282611650565b919050565b600061168282611664565b9050919050565b61169281611677565b82525050565b600060a0820190506116ad6000830188611573565b81810360208301526116bf81876115d9565b90506116ce6040830186611612565b6116db6060830185611612565b6116e86080830184611689565b9695505050505050565b60006020820190506117076000830184611612565b92915050565b61171681611561565b811461172157600080fd5b50565b6000813590506117338161170d565b92915050565b60006020828403121561174f5761174e6114d4565b5b600061175d84828501611724565b91505092915050565b60008115159050919050565b61177b81611766565b82525050565b60006020820190506117966000830184611772565b92915050565b600080fd5b600080fd5b7f4e487b7100000000000000000000000000000000000000000000000000000000600052604160045260246000fd5b6117de826115c8565b810181811067ffffffffffffffff821117156117fd576117fc6117a6565b5b80604052505050565b60006118106114ca565b905061181c82826117d5565b919050565b600067ffffffffffffffff82111561183c5761183b6117a6565b5b611845826115c8565b9050602081019050919050565b82818337600083830152505050565b600061187461186f84611821565b611806565b9050828152602081018484840111156118905761188f6117a1565b5b61189b848285611852565b509392505050565b600082601f8301126118b8576118b761179c565b5b81356118c8848260208601611861565b91505092915050565b600080604083850312156118e8576118e76114d4565b5b600083013567ffffffffffffffff811115611906576119056114d9565b5b611912858286016118a3565b9250506020611923858286016114ff565b9150509250929050565b7f4f6e6c792061646d696e2063616e20706572666f726d2074686973206163746960008201527f6f6e000000000000000000000000000000000000000000000000000000000000602082015250565b600061198960228361158d565b91506119948261192d565b604082019050919050565b600060208201905081810360008301526119b88161197c565b9050919050565b7f4e487b7100000000000000000000000000000000000000000000000000000000600052603260045260246000fd5b7f4e6f742070656e64696e67000000000000000000000000000000000000000000600082015250565b6000611a24600b8361158d565b9150611a2f826119ee565b602082019050919050565b60006020820190508181036000830152611a5381611a17565b9050919050565b7f4e487b7100000000000000000000000000000000000000000000000000000000600052602260045260246000fd5b60006002820490506001821680611aa157607f821691505b602082108103611ab457611ab3611a5a565b5b50919050565b7f4f6e6c792063726561746f722063616e20776974686472617700000000000000600082015250565b6000611af060198361158d565b9150611afb82611aba565b602082019050919050565b60006020820190508181036000830152611b1f81611ae3565b9050919050565b7f4e6f742066696e69736865640000000000000000000000000000000000000000600082015250565b6000611b5c600c8361158d565b9150611b6782611b26565b602082019050919050565b60006020820190508181036000830152611b8b81611b4f565b9050919050565b7f4f6e6c7920617070726f7665642063616d706169676e73000000000000000000600082015250565b6000611bc860178361158d565b9150611bd382611b92565b602082019050919050565b60006020820190508181036000830152611bf781611bbb565b9050919050565b7f4e6f2066756e647320617661696c61626c650000000000000000000000000000600082015250565b6000611c3460128361158d565b9150611c3f82611bfe565b602082019050919050565b60006020820190508181036000830152611c6381611c27565b9050919050565b7f4e6f7420616e2061646d696e0000000000000000000000000000000000000000600082015250565b6000611ca0600c8361158d565b9150611cab82611c6a565b602082019050919050565b60006020820190508181036000830152611ccf81611c93565b9050919050565b7f41646d696e2063616e6e6f742072656d6f76652068696d73656c660000000000600082015250565b6000611d0c601b8361158d565b9150611d1782611cd6565b602082019050919050565b60006020820190508181036000830152611d3b81611cff565b9050919050565b7f4f6e6c7920617070726f7665642063616e2062652064697361626c6564000000600082015250565b6000611d78601d8361158d565b9150611d8382611d42565b602082019050919050565b60006020820190508181036000830152611da781611d6b565b9050919050565b7f43616d706169676e206e6f7420617070726f7665640000000000000000000000600082015250565b6000611de460158361158d565b9150611def82611dae565b602082019050919050565b60006020820190508181036000830152611e1381611dd7565b9050919050565b7f43616d706169676e20656e646564000000000000000000000000000000000000600082015250565b6000611e50600e8361158d565b9150611e5b82611e1a565b602082019050919050565b60006020820190508181036000830152611e7f81611e43565b9050919050565b7f446f6e6174696f6e206d757374206265203e2030000000000000000000000000600082015250565b6000611ebc60148361158d565b9150611ec782611e86565b602082019050919050565b60006020820190508181036000830152611eeb81611eaf565b9050919050565b7f43726561746f722063616e6e6f7420646f6e61746520746f206f776e2063616d60008201527f706169676e000000000000000000000000000000000000000000000000000000602082015250565b6000611f4e60258361158d565b9150611f5982611ef2565b604082019050919050565b60006020820190508181036000830152611f7d81611f41565b9050919050565b7f4e487b7100000000000000000000000000000000000000000000000000000000600052601160045260246000fd5b6000611fbe826114de565b9150611fc9836114de565b9250828201905080821115611fe157611fe0611f84565b5b92915050565b7f416c726561647920616e2061646d696e00000000000000000000000000000000600082015250565b600061201d60108361158d565b915061202882611fe7565b602082019050919050565b6000602082019050818103600083015261204c81612010565b9050919050565b7f4475726174696f6e206d757374206265203e2030000000000000000000000000600082015250565b600061208960148361158d565b915061209482612053565b602082019050919050565b600060208201905081810360008301526120b88161207c565b9050919050565b60006120ca826114de565b91506120d5836114de565b92508282026120e3816114de565b915082820484148315176120fa576120f9611f84565b5b5092915050565b60008190508160005260206000209050919050565b60006020601f8301049050919050565b600082821b905092915050565b6000600883026121637fffffffffffffffffffffffffffffffffffffffffffffffffffffffffffffffff82612126565b61216d8683612126565b95508019841693508086168417925050509392505050565b6000819050919050565b60006121aa6121a56121a0846114de565b612185565b6114de565b9050919050565b6000819050919050565b6121c48361218f565b6121d86121d0826121b1565b848454612133565b825550505050565b600090565b6121ed6121e0565b6121f88184846121bb565b505050565b5b8181101561221c576122116000826121e5565b6001810190506121fe565b5050565b601f8211156122615761223281612101565b61223b84612116565b8101602085101561224a578190505b61225e61225685612116565b8301826121fd565b50505b505050565b600082821c905092915050565b600061228460001984600802612266565b1980831691505092915050565b600061229d8383612273565b9150826002028217905092915050565b6122b682611582565b67ffffffffffffffff8111156122cf576122ce6117a6565b5b6122d98254611a89565b6122e4828285612220565b600060209050601f8311600181146123175760008415612305578287015190505b61230f8582612291565b865550612377565b601f19841661232586612101565b60005b8281101561234d57848901518255600182019150602085019450602081019050612328565b8683101561236a5784890151612366601f891682612273565b8355505b6001600288020188555050505b505050505050565b600061238a826114de565b9150612395836114de565b92508282039050818111156123ad576123ac611f84565b5b92915050565b600060408201905081810360008301526123cd81856115d9565b90506123dc6020830184611612565b939250505056fea2646970667358221220ba71a3ddc1532ec2d3833cb488d6614bfebab3393ddfbb9be50a92fd83df9e9264736f6c63430008110033",
  "immutableReferences": {},
  "source": "// SPDX-License-Identifier: MIT\r\npragma solidity ^0.8.17;\r\n\r\ncontract DonationPlatform {\r\n    \r\n    // ============================\r\n    // ADMIN ROLE MANAGEMENT\r\n    // ============================\r\n\r\n    mapping(address => bool) public admins;\r\n\r\n    event AdminAdded(address indexed admin);\r\n    event AdminRemoved(address indexed admin);\r\n\r\n    modifier onlyAdmin() {\r\n        require(admins[msg.sender], \"Only admin can perform this action\");\r\n        _;\r\n    }\r\n\r\n    constructor() {\r\n        admins[msg.sender] = true; // deployer = default admin\r\n        emit AdminAdded(msg.sender);\r\n    }\r\n\r\n    function addAdmin(address _newAdmin) external onlyAdmin {\r\n        require(!admins[_newAdmin], \"Already an admin\");\r\n        admins[_newAdmin] = true;\r\n        emit AdminAdded(_newAdmin);\r\n    }\r\n\r\n    function removeAdmin(address _admin) external onlyAdmin {\r\n        require(admins[_admin], \"Not an admin\");\r\n        require(_admin != msg.sender, \"Admin cannot remove himself\");\r\n        admins[_admin] = false;\r\n        emit AdminRemoved(_admin);\r\n    }\r\n\r\n    // ============================\r\n    // CAMPAIGN MANAGEMENT\r\n    // ============================\r\n\r\n    enum CampaignStatus { Pending, Approved, Rejected, Disabled }\r\n\r\n    struct Campaign {\r\n        address creator;\r\n        string title;\r\n        uint deadline;\r\n        uint totalDonations;\r\n        CampaignStatus status;\r\n    }\r\n\r\n    Campaign[] public campaigns;\r\n\r\n    event CampaignCreated(\r\n        uint indexed campaignId,\r\n        address indexed creator,\r\n        string title,\r\n        uint deadline\r\n    );\r\n\r\n    event DonationReceived(\r\n        uint indexed campaignId,\r\n        address indexed donor,\r\n        uint amount\r\n    );\r\n\r\n    event FundsWithdrawn(\r\n        uint indexed campaignId,\r\n        address indexed creator,\r\n        uint amount\r\n    );\r\n\r\n    event CampaignApproved(uint indexed campaignId);\r\n    event CampaignRejected(uint indexed campaignId);\r\n    event CampaignDisabled(uint indexed campaignId);\r\n\r\n    // Create New Campaign  always Pending first\r\n    function createCampaign(string memory _title, uint _durationMinutes) external {\r\n        require(_durationMinutes > 0, \"Duration must be > 0\");\r\n\r\n        uint deadline = block.timestamp + (_durationMinutes * 1 minutes);\r\n\r\n        campaigns.push(\r\n            Campaign({\r\n                creator: msg.sender,\r\n                title: _title,\r\n                deadline: deadline,\r\n                totalDonations: 0,\r\n                status: CampaignStatus.Pending\r\n            })\r\n        );\r\n\r\n        emit CampaignCreated(campaigns.length - 1, msg.sender, _title, deadline);\r\n    }\r\n\r\n    // ============================\r\n    // CAMPAIGN MODERATION (Admin Only)\r\n    // ============================\r\n\r\n    function approveCampaign(uint _id) external onlyAdmin {\r\n        Campaign storage c = campaigns[_id];\r\n        require(c.status == CampaignStatus.Pending, \"Not pending\");\r\n        c.status = CampaignStatus.Approved;\r\n        emit CampaignApproved(_id);\r\n    }\r\n\r\n    function rejectCampaign(uint _id) external onlyAdmin {\r\n        Campaign storage c = campaigns[_id];\r\n        require(c.status == CampaignStatus.Pending, \"Not pending\");\r\n        c.status = CampaignStatus.Rejected;\r\n        emit CampaignRejected(_id);\r\n    }\r\n\r\n    function disableCampaign(uint _id) external onlyAdmin {\r\n        Campaign storage c = campaigns[_id];\r\n        require(c.status == CampaignStatus.Approved, \"Only approved can be disabled\");\r\n        c.status = CampaignStatus.Disabled;\r\n        emit CampaignDisabled(_id);\r\n    }\r\n\r\n    // ============================\r\n    // DONATION LOGIC\r\n    // ============================\r\n\r\n    function donateToCampaign(uint _id) external payable {\r\n        Campaign storage c = campaigns[_id];\r\n\r\n        require(c.status == CampaignStatus.Approved, \"Campaign not approved\");\r\n        require(block.timestamp < c.deadline, \"Campaign ended\");\r\n        require(msg.value > 0, \"Donation must be > 0\");\r\n        require(msg.sender != c.creator, \"Creator cannot donate to own campaign\");\r\n\r\n        c.totalDonations += msg.value;\r\n\r\n        emit DonationReceived(_id, msg.sender, msg.value);\r\n    }\r\n\r\n    // ============================\r\n    // WITHDRAW FUNDS\r\n    // ============================\r\n\r\n    function withdrawFunds(uint _id) external {\r\n        Campaign storage c = campaigns[_id];\r\n\r\n        require(msg.sender == c.creator, \"Only creator can withdraw\");\r\n        require(block.timestamp >= c.deadline, \"Not finished\");\r\n        require(c.status == CampaignStatus.Approved, \"Only approved campaigns\");\r\n        require(c.totalDonations > 0, \"No funds available\");\r\n\r\n        uint amount = c.totalDonations;\r\n        c.totalDonations = 0;\r\n\r\n        payable(msg.sender).transfer(amount);\r\n\r\n        emit FundsWithdrawn(_id, msg.sender, amount);\r\n    }\r\n\r\n    // ============================\r\n    // VIEW FUNCTIONS\r\n    // ============================\r\n\r\n    function getCampaignCount() external view returns (uint) {\r\n        return campaigns.length;\r\n    }\r\n\r\n    //  Ditambahkan sesuai permintaan untuk kompatibilitas dengan backend Python\r\n    function getTotalCampaigns() external view returns (uint) {\r\n        return campaigns.length;\r\n    }\r\n\r\n    function getCampaign(uint _id) \r\n        external \r\n        view \r\n        returns (\r\n            address creator,\r\n            string memory title,\r\n            uint deadline,\r\n            uint totalDonations,\r\n            CampaignStatus status\r\n        ) \r\n    {\r\n        Campaign memory c = campaigns[_id];\r\n        return (\r\n            c.creator,\r\n            c.title,\r\n            c.deadline,\r\n            c.totalDonations,\r\n            c.status\r\n        );\r\n    }\r\n}\r\n",
  "sourcePath": "D:\\Project\\Blockchain\\donation_truffle\\contracts\\DonationPlatform.sol",
  "compiler": {
    "name": "solc",
    "version": "0.8.17+commit.8df45f5f.Emscripten.clang"
  },
  "schemaVersion": "3.4.16",
  "updatedAt": "2025-11-17T01:10:03.704Z",
  "networkType": "ethereum",
  "devdoc": {
    "kind": "dev",
    "methods": {},
    "version": 1
  },
  "userdoc": {
    "kind": "user",
    "methods": {},
    "version": 1
  }
}